{
  "contractName": "Agrochain",
  "abi": [
    {
      "inputs": [],
      "payable": false,
      "stateMutability": "nonpayable",
      "type": "constructor"
    },
    {
      "anonymous": false,
      "inputs": [
        {
          "indexed": false,
          "internalType": "uint256",
          "name": "id_agri",
          "type": "uint256"
        },
        {
          "indexed": false,
          "internalType": "string",
          "name": "agri_name",
          "type": "string"
        },
        {
          "indexed": false,
          "internalType": "string",
          "name": "agri_location",
          "type": "string"
        },
        {
          "indexed": false,
          "internalType": "string",
          "name": "agri_telephone",
          "type": "string"
        },
        {
          "indexed": false,
          "internalType": "string",
          "name": "product_name",
          "type": "string"
        },
        {
          "indexed": false,
          "internalType": "string",
          "name": "agri_price",
          "type": "string"
        },
        {
          "indexed": false,
          "internalType": "uint256",
          "name": "date_prod",
          "type": "uint256"
        },
        {
          "indexed": false,
          "internalType": "uint256",
          "name": "date_exp",
          "type": "uint256"
        }
      ],
      "name": "ProductCreated",
      "type": "event"
    },
    {
      "anonymous": false,
      "inputs": [
        {
          "indexed": false,
          "internalType": "uint256",
          "name": "purchase_date",
          "type": "uint256"
        },
        {
          "indexed": false,
          "internalType": "string",
          "name": "buyer",
          "type": "string"
        },
        {
          "indexed": false,
          "internalType": "string",
          "name": "place",
          "type": "string"
        },
        {
          "indexed": false,
          "internalType": "string",
          "name": "product_name",
          "type": "string"
        },
        {
          "indexed": false,
          "internalType": "uint256",
          "name": "id_farmer",
          "type": "uint256"
        }
      ],
      "name": "purchaseCreated",
      "type": "event"
    },
    {
      "constant": true,
      "inputs": [],
      "name": "productNumber",
      "outputs": [
        {
          "internalType": "uint256",
          "name": "",
          "type": "uint256"
        }
      ],
      "payable": false,
      "stateMutability": "view",
      "type": "function"
    },
    {
      "constant": true,
      "inputs": [
        {
          "internalType": "uint256",
          "name": "",
          "type": "uint256"
        }
      ],
      "name": "products",
      "outputs": [
        {
          "internalType": "uint256",
          "name": "id_agri",
          "type": "uint256"
        },
        {
          "internalType": "string",
          "name": "agri_name",
          "type": "string"
        },
        {
          "internalType": "string",
          "name": "agri_location",
          "type": "string"
        },
        {
          "internalType": "string",
          "name": "agri_telephone",
          "type": "string"
        },
        {
          "internalType": "string",
          "name": "product_name",
          "type": "string"
        },
        {
          "internalType": "string",
          "name": "agri_price",
          "type": "string"
        },
        {
          "internalType": "uint256",
          "name": "date_prod",
          "type": "uint256"
        },
        {
          "internalType": "uint256",
          "name": "date_exp",
          "type": "uint256"
        }
      ],
      "payable": false,
      "stateMutability": "view",
      "type": "function"
    },
    {
      "constant": true,
      "inputs": [],
      "name": "purchaseNumber",
      "outputs": [
        {
          "internalType": "uint256",
          "name": "",
          "type": "uint256"
        }
      ],
      "payable": false,
      "stateMutability": "view",
      "type": "function"
    },
    {
      "constant": true,
      "inputs": [
        {
          "internalType": "uint256",
          "name": "",
          "type": "uint256"
        }
      ],
      "name": "purchases",
      "outputs": [
        {
          "internalType": "uint256",
          "name": "purchase_date",
          "type": "uint256"
        },
        {
          "internalType": "string",
          "name": "buyer",
          "type": "string"
        },
        {
          "internalType": "string",
          "name": "place",
          "type": "string"
        },
        {
          "internalType": "string",
          "name": "product_name",
          "type": "string"
        },
        {
          "internalType": "uint256",
          "name": "id_farmer",
          "type": "uint256"
        }
      ],
      "payable": false,
      "stateMutability": "view",
      "type": "function"
    },
    {
      "constant": false,
      "inputs": [
        {
          "internalType": "uint256",
          "name": "id_agri",
          "type": "uint256"
        },
        {
          "internalType": "string",
          "name": "_agri_name",
          "type": "string"
        },
        {
          "internalType": "string",
          "name": "_agri_telephone",
          "type": "string"
        },
        {
          "internalType": "string",
          "name": "_agri_location",
          "type": "string"
        },
        {
          "internalType": "string",
          "name": "_product_name",
          "type": "string"
        },
        {
          "internalType": "string",
          "name": "_agri_price",
          "type": "string"
        },
        {
          "internalType": "uint256",
          "name": "date_prod",
          "type": "uint256"
        },
        {
          "internalType": "uint256",
          "name": "date_exp",
          "type": "uint256"
        }
      ],
      "name": "createProduct",
      "outputs": [],
      "payable": false,
      "stateMutability": "nonpayable",
      "type": "function"
    },
    {
      "constant": false,
      "inputs": [
        {
          "internalType": "uint256",
          "name": "purchase_date",
          "type": "uint256"
        },
        {
          "internalType": "string",
          "name": "_buyer",
          "type": "string"
        },
        {
          "internalType": "string",
          "name": "_place",
          "type": "string"
        },
        {
          "internalType": "string",
          "name": "_product_name",
          "type": "string"
        },
        {
          "internalType": "uint256",
          "name": "id_farmer",
          "type": "uint256"
        }
      ],
      "name": "createpurchase",
      "outputs": [],
      "payable": false,
      "stateMutability": "nonpayable",
      "type": "function"
    }
  ],
  "bytecode": "0x60806040526000805560006001553480156200001a57600080fd5b50620000ce600160405180604001604052806005815260200164416265626560d81b815250604051806040016040528060058152602001644a696d6d6160d81b8152506040518060400160405280600a81526020016906072626466686a6c6e760b31b81525060405180604001604052806006815260200165436f6666656560d01b815250604051806040016040528060048152602001630333030360e41b8152506107d06107d16200014b60201b60201c565b620001456107d0604051806040016040528060068152602001654b656265646560d01b8152506040518060400160405280600b81526020016a416464697320416261626160a81b81525060405180604001604052806006815260200165436f6666656560d01b8152506001620004b560201b60201c565b62000787565b60008054600190810180835560408051610100810182528c815260208082018d81528284018c9052606083018d9052608083018b905260a083018a905260c0830189905260e08301889052938652600281529190942084518155915180519293620001bf93908501929190910190620006e2565b5060408201518051620001dd916002840191602090910190620006e2565b5060608201518051620001fb916003840191602090910190620006e2565b506080820151805162000219916004840191602090910190620006e2565b5060a0820151805162000237916005840191602090910190620006e2565b5060c0820151816006015560e082015181600701559050507fba7316c3cd6337fb8f6d3effa989c49414c0bdc8b46c5667537831969a442c3f888887898888888860405180898152602001806020018060200180602001806020018060200188815260200187815260200186810386528d818151815260200191508051906020019080838360005b83811015620002d9578181015183820152602001620002bf565b50505050905090810190601f168015620003075780820380516001836020036101000a031916815260200191505b5086810385528c5181528c516020918201918e019080838360005b838110156200033c57818101518382015260200162000322565b50505050905090810190601f1680156200036a5780820380516001836020036101000a031916815260200191505b5086810384528b5181528b516020918201918d019080838360005b838110156200039f57818101518382015260200162000385565b50505050905090810190601f168015620003cd5780820380516001836020036101000a031916815260200191505b5086810383528a5181528a516020918201918c019080838360005b8381101562000402578181015183820152602001620003e8565b50505050905090810190601f168015620004305780820380516001836020036101000a031916815260200191505b5086810382528951815289516020918201918b019080838360005b83811015620004655781810151838201526020016200044b565b50505050905090810190601f168015620004935780820380516001836020036101000a031916815260200191505b509d505050505050505050505050505060405180910390a15050505050505050565b6001805481018082556040805160a08101825288815260208082018981528284018990526060830188905260808301879052600094855260038252929093208151815591518051919492936200051193850192910190620006e2565b50604082015180516200052f916002840191602090910190620006e2565b50606082015180516200054d916003840191602090910190620006e2565b50608082015181600401559050507f54c4e94853368da32bc98cb2b99fecd8eed55e6de402293d48aab71cb2c700aa858585858560405180868152602001806020018060200180602001858152602001848103845288818151815260200191508051906020019080838360005b83811015620005d4578181015183820152602001620005ba565b50505050905090810190601f168015620006025780820380516001836020036101000a031916815260200191505b50848103835287518152875160209182019189019080838360005b83811015620006375781810151838201526020016200061d565b50505050905090810190601f168015620006655780820380516001836020036101000a031916815260200191505b50848103825286518152865160209182019188019080838360005b838110156200069a57818101518382015260200162000680565b50505050905090810190601f168015620006c85780820380516001836020036101000a031916815260200191505b509850505050505050505060405180910390a15050505050565b828054600181600116156101000203166002900490600052602060002090601f016020900481019282601f106200072557805160ff191683800117855562000755565b8280016001018555821562000755579182015b828111156200075557825182559160200191906001019062000738565b506200076392915062000767565b5090565b6200078491905b808211156200076357600081556001016200076e565b90565b6113c580620007976000396000f3fe608060405234801561001057600080fd5b50600436106100625760003560e01c80635034735d14610067578063597b7cfd146100815780637acc0b20146103485780638392fe311461058a578063b8fa7fa6146106f9578063bbbb20ca146108b0575b600080fd5b61006f6108b8565b60408051918252519081900360200190f35b610346600480360361010081101561009857600080fd5b81359190810190604081016020820135600160201b8111156100b957600080fd5b8201836020820111156100cb57600080fd5b803590602001918460018302840111600160201b831117156100ec57600080fd5b91908080601f0160208091040260200160405190810160405280939291908181526020018383808284376000920191909152509295949360208101935035915050600160201b81111561013e57600080fd5b82018360208201111561015057600080fd5b803590602001918460018302840111600160201b8311171561017157600080fd5b91908080601f0160208091040260200160405190810160405280939291908181526020018383808284376000920191909152509295949360208101935035915050600160201b8111156101c357600080fd5b8201836020820111156101d557600080fd5b803590602001918460018302840111600160201b831117156101f657600080fd5b91908080601f0160208091040260200160405190810160405280939291908181526020018383808284376000920191909152509295949360208101935035915050600160201b81111561024857600080fd5b82018360208201111561025a57600080fd5b803590602001918460018302840111600160201b8311171561027b57600080fd5b91908080601f0160208091040260200160405190810160405280939291908181526020018383808284376000920191909152509295949360208101935035915050600160201b8111156102cd57600080fd5b8201836020820111156102df57600080fd5b803590602001918460018302840111600160201b8311171561030057600080fd5b91908080601f01602080910402602001604051908101604052809392919081815260200183838082843760009201919091525092955050823593505050602001356108be565b005b6103656004803603602081101561035e57600080fd5b5035610c0f565b60405180898152602001806020018060200180602001806020018060200188815260200187815260200186810386528d818151815260200191508051906020019080838360005b838110156103c45781810151838201526020016103ac565b50505050905090810190601f1680156103f15780820380516001836020036101000a031916815260200191505b5086810385528c5181528c516020918201918e019080838360005b8381101561042457818101518382015260200161040c565b50505050905090810190601f1680156104515780820380516001836020036101000a031916815260200191505b5086810384528b5181528b516020918201918d019080838360005b8381101561048457818101518382015260200161046c565b50505050905090810190601f1680156104b15780820380516001836020036101000a031916815260200191505b5086810383528a5181528a516020918201918c019080838360005b838110156104e45781810151838201526020016104cc565b50505050905090810190601f1680156105115780820380516001836020036101000a031916815260200191505b5086810382528951815289516020918201918b019080838360005b8381101561054457818101518382015260200161052c565b50505050905090810190601f1680156105715780820380516001836020036101000a031916815260200191505b509d505050505050505050505050505060405180910390f35b6105a7600480360360208110156105a057600080fd5b5035610f02565b60405180868152602001806020018060200180602001858152602001848103845288818151815260200191508051906020019080838360005b838110156105f85781810151838201526020016105e0565b50505050905090810190601f1680156106255780820380516001836020036101000a031916815260200191505b50848103835287518152875160209182019189019080838360005b83811015610658578181015183820152602001610640565b50505050905090810190601f1680156106855780820380516001836020036101000a031916815260200191505b50848103825286518152865160209182019188019080838360005b838110156106b85781810151838201526020016106a0565b50505050905090810190601f1680156106e55780820380516001836020036101000a031916815260200191505b509850505050505050505060405180910390f35b610346600480360360a081101561070f57600080fd5b81359190810190604081016020820135600160201b81111561073057600080fd5b82018360208201111561074257600080fd5b803590602001918460018302840111600160201b8311171561076357600080fd5b91908080601f0160208091040260200160405190810160405280939291908181526020018383808284376000920191909152509295949360208101935035915050600160201b8111156107b557600080fd5b8201836020820111156107c757600080fd5b803590602001918460018302840111600160201b831117156107e857600080fd5b91908080601f0160208091040260200160405190810160405280939291908181526020018383808284376000920191909152509295949360208101935035915050600160201b81111561083a57600080fd5b82018360208201111561084c57600080fd5b803590602001918460018302840111600160201b8311171561086d57600080fd5b91908080601f01602080910402602001604051908101604052809392919081815260200183838082843760009201919091525092955050913592506110d1915050565b61006f6112ef565b60005481565b60008054600190810180835560408051610100810182528c815260208082018d81528284018c9052606083018d9052608083018b905260a083018a905260c0830189905260e08301889052938652600281529190942084518155915180519293610930939085019291909101906112f5565b506040820151805161094c9160028401916020909101906112f5565b50606082015180516109689160038401916020909101906112f5565b50608082015180516109849160048401916020909101906112f5565b5060a082015180516109a09160058401916020909101906112f5565b5060c0820151816006015560e082015181600701559050507fba7316c3cd6337fb8f6d3effa989c49414c0bdc8b46c5667537831969a442c3f888887898888888860405180898152602001806020018060200180602001806020018060200188815260200187815260200186810386528d818151815260200191508051906020019080838360005b83811015610a40578181015183820152602001610a28565b50505050905090810190601f168015610a6d5780820380516001836020036101000a031916815260200191505b5086810385528c5181528c516020918201918e019080838360005b83811015610aa0578181015183820152602001610a88565b50505050905090810190601f168015610acd5780820380516001836020036101000a031916815260200191505b5086810384528b5181528b516020918201918d019080838360005b83811015610b00578181015183820152602001610ae8565b50505050905090810190601f168015610b2d5780820380516001836020036101000a031916815260200191505b5086810383528a5181528a516020918201918c019080838360005b83811015610b60578181015183820152602001610b48565b50505050905090810190601f168015610b8d5780820380516001836020036101000a031916815260200191505b5086810382528951815289516020918201918b019080838360005b83811015610bc0578181015183820152602001610ba8565b50505050905090810190601f168015610bed5780820380516001836020036101000a031916815260200191505b509d505050505050505050505050505060405180910390a15050505050505050565b60026020818152600092835260409283902080546001808301805487519281161561010002600019011695909504601f8101859004850282018501909652858152909491939092909190830182828015610caa5780601f10610c7f57610100808354040283529160200191610caa565b820191906000526020600020905b815481529060010190602001808311610c8d57829003601f168201915b50505060028085018054604080516020601f6000196101006001871615020190941695909504928301859004850281018501909152818152959695945090925090830182828015610d3c5780601f10610d1157610100808354040283529160200191610d3c565b820191906000526020600020905b815481529060010190602001808311610d1f57829003601f168201915b5050505060038301805460408051602060026001851615610100026000190190941693909304601f8101849004840282018401909252818152949594935090830182828015610dcc5780601f10610da157610100808354040283529160200191610dcc565b820191906000526020600020905b815481529060010190602001808311610daf57829003601f168201915b5050505060048301805460408051602060026001851615610100026000190190941693909304601f8101849004840282018401909252818152949594935090830182828015610e5c5780601f10610e3157610100808354040283529160200191610e5c565b820191906000526020600020905b815481529060010190602001808311610e3f57829003601f168201915b5050505060058301805460408051602060026001851615610100026000190190941693909304601f8101849004840282018401909252818152949594935090830182828015610eec5780601f10610ec157610100808354040283529160200191610eec565b820191906000526020600020905b815481529060010190602001808311610ecf57829003601f168201915b5050505050908060060154908060070154905088565b6003602090815260009182526040918290208054600180830180548651600293821615610100026000190190911692909204601f810186900486028301860190965285825291949293909290830182828015610f9f5780601f10610f7457610100808354040283529160200191610f9f565b820191906000526020600020905b815481529060010190602001808311610f8257829003601f168201915b50505060028085018054604080516020601f60001961010060018716150201909416959095049283018590048502810185019091528181529596959450909250908301828280156110315780601f1061100657610100808354040283529160200191611031565b820191906000526020600020905b81548152906001019060200180831161101457829003601f168201915b5050505060038301805460408051602060026001851615610100026000190190941693909304601f81018490048402820184019092528181529495949350908301828280156110c15780601f10611096576101008083540402835291602001916110c1565b820191906000526020600020905b8154815290600101906020018083116110a457829003601f168201915b5050505050908060040154905085565b6001805481018082556040805160a081018252888152602080820189815282840189905260608301889052608083018790526000948552600382529290932081518155915180519194929361112b938501929101906112f5565b50604082015180516111479160028401916020909101906112f5565b50606082015180516111639160038401916020909101906112f5565b50608082015181600401559050507f54c4e94853368da32bc98cb2b99fecd8eed55e6de402293d48aab71cb2c700aa858585858560405180868152602001806020018060200180602001858152602001848103845288818151815260200191508051906020019080838360005b838110156111e85781810151838201526020016111d0565b50505050905090810190601f1680156112155780820380516001836020036101000a031916815260200191505b50848103835287518152875160209182019189019080838360005b83811015611248578181015183820152602001611230565b50505050905090810190601f1680156112755780820380516001836020036101000a031916815260200191505b50848103825286518152865160209182019188019080838360005b838110156112a8578181015183820152602001611290565b50505050905090810190601f1680156112d55780820380516001836020036101000a031916815260200191505b509850505050505050505060405180910390a15050505050565b60015481565b828054600181600116156101000203166002900490600052602060002090601f016020900481019282601f1061133657805160ff1916838001178555611363565b82800160010185558215611363579182015b82811115611363578251825591602001919060010190611348565b5061136f929150611373565b5090565b61138d91905b8082111561136f5760008155600101611379565b9056fea265627a7a72315820eaf5fc37e3de267e78f10da3ce4d687b65d107cb3a0d0d450b2509212e8ab3e064736f6c63430005100032",
  "source": "pragma solidity >=0.4.22 <0.9.0;\r\n\r\ncontract Agrochain {\r\n\r\n    uint public productNumber = 0;\r\n    uint public purchaseNumber = 0;\r\n\r\n    constructor() public {\r\n        createProduct(1,\"Abebe\",\"Jimma\",\"0912345678\",\"Coffee\",\"3000\",2000,2001);\r\n        createpurchase(2000, \"Kebede\", \"Addis Ababa\", \"Coffee\", 1);\r\n    }\r\n\r\n    struct Product {\r\n        uint id_agri;\r\n        string agri_name;\r\n        string agri_location;\r\n        string agri_telephone;\r\n        string product_name;\r\n        string agri_price; \r\n        uint date_prod;\r\n        uint date_exp;\r\n    }\r\n\r\n        \r\n\r\n    struct purchase {\r\n        uint purchase_date; \r\n        string buyer;\r\n        string place;\r\n        string product_name; \r\n        uint id_farmer; \r\n    }\r\n\r\n\r\n\r\n    mapping(uint => Product) public products;\r\n\r\n    mapping(uint => purchase) public purchases;\r\n\r\n    event ProductCreated(\r\n        uint id_agri,\r\n        string agri_name,\r\n        string agri_location,\r\n        string agri_telephone,\r\n        string product_name,\r\n        string agri_price,\r\n        uint date_prod,\r\n        uint date_exp\r\n        \r\n    );\r\n\r\n        \r\n\r\n    event purchaseCreated(\r\n        uint purchase_date,\r\n        string buyer,\r\n        string place,\r\n        string product_name,\r\n        uint id_farmer\r\n    );\r\n\r\n\r\n    function createProduct(uint id_agri, string memory _agri_name, string memory _agri_telephone, string memory _agri_location, string memory _product_name, string memory _agri_price, uint date_prod, uint date_exp) public {\r\n        productNumber ++;\r\n        products[productNumber] = Product(id_agri, _agri_name, _agri_location, _agri_telephone,_product_name, _agri_price, date_prod, date_exp);\r\n        emit ProductCreated(id_agri, _agri_name, _agri_location, _agri_telephone,_product_name, _agri_price, date_prod, date_exp);\r\n    }\r\n\r\n\r\n\r\n   function createpurchase(uint purchase_date, string memory _buyer, string memory _place, string memory _product_name, uint id_farmer) public {\r\n        purchaseNumber ++;\r\n        purchases[purchaseNumber] = purchase(purchase_date, _buyer, _place, _product_name, id_farmer);\r\n        emit purchaseCreated(purchase_date, _buyer, _place, _product_name, id_farmer);\r\n    }\r\n\r\n\r\n}",
  "sourcePath": "C:\\Users\\sekal\\OneDrive\\Desktop\\Agricultural supply chain\\agrochain\\contracts\\Agrochain.sol",
  "compiler": {
    "name": "solc",
    "version": "0.5.16+commit.9c3226ce.Emscripten.clang"
  },
  "schemaVersion": "3.4.4",
  "updatedAt": "2022-01-14T12:43:36.383Z",
  "devdoc": {
    "methods": {}
  },
  "userdoc": {
    "methods": {}
  }
}